{
  "contractName": "MeetingContract",
  "abi": [
    {
      "constant": true,
      "inputs": [
        {
          "name": "",
          "type": "uint256"
        }
      ],
      "name": "meetings",
      "outputs": [
        {
          "name": "description",
          "type": "string"
        },
        {
          "name": "amountOfMembers",
          "type": "uint256"
        }
      ],
      "payable": false,
      "stateMutability": "view",
      "type": "function"
    },
    {
      "constant": true,
      "inputs": [],
      "name": "amountOfMeetings",
      "outputs": [
        {
          "name": "",
          "type": "uint256"
        }
      ],
      "payable": false,
      "stateMutability": "view",
      "type": "function"
    },
    {
      "constant": true,
      "inputs": [
        {
          "name": "",
          "type": "address"
        }
      ],
      "name": "user_roles",
      "outputs": [
        {
          "name": "",
          "type": "uint8"
        }
      ],
      "payable": false,
      "stateMutability": "view",
      "type": "function"
    },
    {
      "inputs": [],
      "payable": false,
      "stateMutability": "nonpayable",
      "type": "constructor"
    },
    {
      "anonymous": false,
      "inputs": [
        {
          "indexed": true,
          "name": "numberOfMeeting",
          "type": "uint256"
        },
        {
          "indexed": false,
          "name": "userAddress",
          "type": "address"
        },
        {
          "indexed": false,
          "name": "salt",
          "type": "string"
        },
        {
          "indexed": false,
          "name": "hash",
          "type": "string"
        }
      ],
      "name": "onAddPassportInfo",
      "type": "event"
    },
    {
      "anonymous": false,
      "inputs": [
        {
          "indexed": false,
          "name": "numberOfMeeting",
          "type": "uint256"
        },
        {
          "indexed": false,
          "name": "description",
          "type": "string"
        }
      ],
      "name": "onNewMeeting",
      "type": "event"
    },
    {
      "constant": false,
      "inputs": [
        {
          "name": "_description",
          "type": "string"
        }
      ],
      "name": "newMeeting",
      "outputs": [],
      "payable": false,
      "stateMutability": "nonpayable",
      "type": "function"
    },
    {
      "constant": false,
      "inputs": [
        {
          "name": "numberOfMeeting",
          "type": "uint256"
        },
        {
          "name": "_salt",
          "type": "string"
        },
        {
          "name": "_hash",
          "type": "string"
        }
      ],
      "name": "participate",
      "outputs": [],
      "payable": false,
      "stateMutability": "nonpayable",
      "type": "function"
    },
    {
      "constant": true,
      "inputs": [
        {
          "name": "numberOfMeeting",
          "type": "uint256"
        }
      ],
      "name": "loadMeeting",
      "outputs": [
        {
          "name": "",
          "type": "string"
        }
      ],
      "payable": false,
      "stateMutability": "view",
      "type": "function"
    },
    {
      "constant": true,
      "inputs": [],
      "name": "getAmountOfMeetings",
      "outputs": [
        {
          "name": "",
          "type": "uint256"
        }
      ],
      "payable": false,
      "stateMutability": "view",
      "type": "function"
    },
    {
      "constant": true,
      "inputs": [
        {
          "name": "addr",
          "type": "address"
        }
      ],
      "name": "getRole",
      "outputs": [
        {
          "name": "",
          "type": "uint8"
        }
      ],
      "payable": false,
      "stateMutability": "view",
      "type": "function"
    }
  ],
  "bytecode": "0x608060405234801561001057600080fd5b5060016000803373ffffffffffffffffffffffffffffffffffffffff1673ffffffffffffffffffffffffffffffffffffffff16815260200190815260200160002060006101000a81548160ff0219169083600181111561006c57fe5b0217905550610be0806100806000396000f3fe608060405234801561001057600080fd5b50600436106100885760003560e01c80638f832bd81161005b5780638f832bd8146102f257806391a6ea9414610310578063d5f4e4ed146103b7578063f8b00b4c146103d557610088565b8063442767331461008d578063506e8481146100f3578063755809cc1461016c5780638460168a14610244575b600080fd5b6100cf600480360360208110156100a357600080fd5b81019080803573ffffffffffffffffffffffffffffffffffffffff16906020019092919050505061043b565b604051808260018111156100df57fe5b60ff16815260200191505060405180910390f35b61016a6004803603602081101561010957600080fd5b810190808035906020019064010000000081111561012657600080fd5b82018360208201111561013857600080fd5b8035906020019184600183028401116401000000008311171561015a57600080fd5b9091929391929390505050610490565b005b6102426004803603606081101561018257600080fd5b8101908080359060200190929190803590602001906401000000008111156101a957600080fd5b8201836020820111156101bb57600080fd5b803590602001918460018302840111640100000000831117156101dd57600080fd5b9091929391929390803590602001906401000000008111156101fe57600080fd5b82018360208201111561021057600080fd5b8035906020019184600183028401116401000000008311171561023257600080fd5b909192939192939050505061061c565b005b6102706004803603602081101561025a57600080fd5b810190808035906020019092919050505061096b565b6040518080602001838152602001828103825284818151815260200191508051906020019080838360005b838110156102b657808201518184015260208101905061029b565b50505050905090810190601f1680156102e35780820380516001836020036101000a031916815260200191505b50935050505060405180910390f35b6102fa610a27565b6040518082815260200191505060405180910390f35b61033c6004803603602081101561032657600080fd5b8101908080359060200190929190505050610a31565b6040518080602001828103825283818151815260200191508051906020019080838360005b8381101561037c578082015181840152602081019050610361565b50505050905090810190601f1680156103a95780820380516001836020036101000a031916815260200191505b509250505060405180910390f35b6103bf610ae9565b6040518082815260200191505060405180910390f35b610417600480360360208110156103eb57600080fd5b81019080803573ffffffffffffffffffffffffffffffffffffffff169060200190929190505050610aef565b6040518082600181111561042757fe5b60ff16815260200191505060405180910390f35b60008060008373ffffffffffffffffffffffffffffffffffffffff1673ffffffffffffffffffffffffffffffffffffffff16815260200190815260200160002060009054906101000a900460ff169050919050565b60018081111561049c57fe5b6000803373ffffffffffffffffffffffffffffffffffffffff1673ffffffffffffffffffffffffffffffffffffffff16815260200190815260200160002060009054906101000a900460ff1660018111156104f357fe5b146104fd57600080fd5b604051806040016040528083838080601f016020809104026020016040519081016040528093929190818152602001838380828437600081840152601f19601f82011690508083019250505050505050815260200160008152506001600060025481526020019081526020016000206000820151816000019080519060200190610588929190610b0f565b50602082015181600101559050506002600081548092919060010191905055507fbffaf4dad3ade783dbeb78d9aebe49511982d3a05577540dd8cc04915549caaf600160025403838360405180848152602001806020018281038252848482818152602001925080828437600081840152601f19601f82011690508083019250505094505050505060405180910390a15050565b600015156001600087815260200190815260200160002060030160003373ffffffffffffffffffffffffffffffffffffffff1673ffffffffffffffffffffffffffffffffffffffff16815260200190815260200160002060009054906101000a900460ff1615151461068d57600080fd5b60405180606001604052803373ffffffffffffffffffffffffffffffffffffffff16815260200185858080601f016020809104026020016040519081016040528093929190818152602001838380828437600081840152601f19601f82011690508083019250505050505050815260200183838080601f016020809104026020016040519081016040528093929190818152602001838380828437600081840152601f19601f820116905080830192505050505050508152506001600087815260200190815260200160002060020160006001600089815260200190815260200160002060010154815260200190815260200160002060008201518160000160006101000a81548173ffffffffffffffffffffffffffffffffffffffff021916908373ffffffffffffffffffffffffffffffffffffffff16021790555060208201518160010190805190602001906107e6929190610b0f565b506040820151816002019080519060200190610803929190610b0f565b50905050600180600087815260200190815260200160002060030160003373ffffffffffffffffffffffffffffffffffffffff1673ffffffffffffffffffffffffffffffffffffffff16815260200190815260200160002060006101000a81548160ff0219169083151502179055506001600086815260200190815260200160002060010160008154809291906001019190505550847f0a0b7cd556f53225d8ac3d4f4fce9d48b9eb3b70f180514c213970af73dc99103386868686604051808673ffffffffffffffffffffffffffffffffffffffff1673ffffffffffffffffffffffffffffffffffffffff16815260200180602001806020018381038352878782818152602001925080828437600081840152601f19601f8201169050808301925050508381038252858582818152602001925080828437600081840152601f19601f82011690508083019250505097505050505050505060405180910390a25050505050565b6001602052806000526040600020600091509050806000018054600181600116156101000203166002900480601f016020809104026020016040519081016040528092919081815260200182805460018160011615610100020316600290048015610a175780601f106109ec57610100808354040283529160200191610a17565b820191906000526020600020905b8154815290600101906020018083116109fa57829003601f168201915b5050505050908060010154905082565b6000600254905090565b6060600160008381526020019081526020016000206000018054600181600116156101000203166002900480601f016020809104026020016040519081016040528092919081815260200182805460018160011615610100020316600290048015610add5780601f10610ab257610100808354040283529160200191610add565b820191906000526020600020905b815481529060010190602001808311610ac057829003601f168201915b50505050509050919050565b60025481565b60006020528060005260406000206000915054906101000a900460ff1681565b828054600181600116156101000203166002900490600052602060002090601f016020900481019282601f10610b5057805160ff1916838001178555610b7e565b82800160010185558215610b7e579182015b82811115610b7d578251825591602001919060010190610b62565b5b509050610b8b9190610b8f565b5090565b610bb191905b80821115610bad576000816000905550600101610b95565b5090565b9056fea165627a7a723058201d2bcc46625ba3478a030939adedb80d984ae2aef451b60382c30481098f990c0029",
  "source": "pragma solidity >= 0.5.0 < 0.6.0;\ncontract MeetingContract {\n    \n    enum ROLES {UNREG, OWNER}\n    \n    struct PassportInfo {\n        address userAddress;\n        string salt;\n        string hash; // hash(\"salt\" + \"number\")\n    }\n    \n    struct Meeting {\n        string description;\n        uint256 amountOfMembers;\n        mapping (uint256 => PassportInfo) passports;\n        mapping (address => bool) isMember;\n    }\n    \n    event onAddPassportInfo(uint256 indexed numberOfMeeting, address userAddress, string salt, string hash);\n    event onNewMeeting(uint256 numberOfMeeting, string description);\n    \n    mapping  (address => ROLES) public user_roles;\n    mapping (uint256 => Meeting) public meetings;\n    uint256 public amountOfMeetings;\n    \n    \n    modifier onlyOwner(){\n        require(user_roles[msg.sender] == ROLES.OWNER);\n        _;\n    }\n    \n    constructor () public {\n        user_roles[msg.sender] = ROLES.OWNER;\n    }\n    \n    function newMeeting (string calldata _description) external onlyOwner {\n        meetings[amountOfMeetings] = Meeting({\n            description : _description,\n            amountOfMembers : 0\n        });\n        amountOfMeetings++;\n        emit onNewMeeting(amountOfMeetings - 1, _description);\n    }\n    \n    function participate(uint256 numberOfMeeting, string calldata _salt, string calldata _hash) external {\n        require(meetings[numberOfMeeting].isMember[msg.sender] == false);\n        meetings[numberOfMeeting]\n        .passports[meetings[numberOfMeeting].amountOfMembers] = PassportInfo({\n            userAddress : msg.sender,\n            salt : _salt,\n            hash : _hash\n        });\n        meetings[numberOfMeeting].isMember[msg.sender] = true;\n        meetings[numberOfMeeting].amountOfMembers++;\n        emit onAddPassportInfo(numberOfMeeting, msg.sender, _salt, _hash);\n    }\n    \n    function loadMeeting(uint256 numberOfMeeting) external view returns (string memory){\n        return meetings[numberOfMeeting].description;\n    }\n    \n    function getAmountOfMeetings() external view returns (uint256) {\n        return amountOfMeetings;\n    }\n    \n    function getRole(address addr) external view returns (ROLES) {\n        return user_roles[addr];\n    }\n    \n}",
  "sourcePath": "/home/pancake/WebstormProjects/meeting/src/blockchain/contracts/contracts/MeetingContract.sol",
  "compiler": {
    "name": "solc",
    "version": "0.5.8+commit.23d335f2.Emscripten.clang"
  },
  "schemaVersion": "3.0.13",
  "updatedAt": "2020-07-17T08:34:25.475Z",
  "devdoc": {
    "methods": {}
  },
  "userdoc": {
    "methods": {}
  }
}